:020000022000DC
:1000000000C0FF24F8BE0091780005FD44C0F092C6
:10001000000708E1009317070FEF0A950023E9F79F
:100020000091080707FFEAC0E0E0F0E007911691B1
:100030000F3F19F41F3F09F4E1C02DC03091CF01EB
:1000400037FDFCCF3BB72BBFF8012091CA0113E26B
:100050001093CA010A01E8952093CA013BBF089595
:100060003BB72BBFF8012091CA014093CA013DE97B
:1000700030933400E8952093CA013BBF089501E70F
:100080000DBF00E20EBFCAEADAE2E0E0EABF0F9479
:10009000260B0F94BF00F0921707009100201091DB
:1000A00001200A3A154511F00C940000F09200204E
:1000B000F092012000E200937800F6CFFF84EE84F6
:1000C000DD84CC84BB84AA84998488847F806E80FC
:1000D0005D804C80BB81AA8199818881F0E0EC0F22
:1000E000FD1FEF010895FA92EA92DA92CA92BA924B
:1000F000AA929A928A927A926A925A924A92BA935F
:10010000AA939A938A930895AF93BF93D8013BBF64
:1001100029BF01900D92415050406040D1F7BF91EE
:10012000AF9108954091CA01E22FF32F0093CA01C5
:1001300004914093CA01089540E04BBFF80158ED87
:1001400054BF208308954A951AF016950795FBCF62
:1001500008954A951AF0000F111FFBCF0895BD01B5
:10016000D801F90130E006C03BBF219139BF2D9382
:1001700041505040242F252BB9F7DB01089527E487
:1001800002EA10E00F949C000F94420A78940F94B6
:080190002F040F944E01FFCF74
:1001F4000D9480010D94B70140CF0FBF08952AE1FB
:1002040007D00093FA042BE103D00093FB04089574
:1002140030E002E00F9492000F3F09F40FE10895DB
:100224008A9300E00093600000E30F948C0A81D16C
:100234000064008301E0009360008FB7F89400E04D
:1002440028E0029FF001E054F64D318B0395023013
:10025400C0F3D5DF0091C0040093C0046AD10068E4
:1002640024D100610083E0ECF9E27096E093C604C7
:10027400F093C704E0ECF4E00081006200830FEF28
:100284000583E8EC00810160008300C0082FB5DF1E
:100294008991089500E008950FB7F89410E410933D
:1002A400CA0410E21093CA04E1ECF4E015D0108102
:1002B40011601083E9EC108112601083E8EC108166
:1002C40010641083E9EC108111601083E8EC108154
:1002D4001068108392CFF4E030E03BBF08950093A0
:1002E400C30408950091C30408950093EA29109368
:1002F400EB292093EC293093ED29089572D000E086
:1003040008BF0091CB0407FF05C000E82FD20F946B
:10031400450429C014D2002331F5EBEC0BD104FFC2
:1003240018C000E123D20F94310400E00093C30409
:1003340020E430E010E06ED020E430E010E000E88B
:1003440069D00AEF19E20093D4291093D52940D13A
:100354000AC0008106FF02C000E404C0008105FF5A
:1003640002C000E203D222D018953BD000E008BFBF
:100374000091CC0401FD02C09DD1B9F402E00093C8
:10038400CC040091C5042BD0F801A6DF008105FF41
:1003940006C025D020E2F80126931BD106C000E850
:1003A4001FD020E2F8012693C7D0DDCF4CBEBBBFDF
:1003B400A9BF98BF8FBF099119912991399149918A
:1003C4005991699179910990199029903990E991FD
:1003D400F99189919991A991B9914990089500E071
:1003E40034C04A92BA93AA939A938A93FA93EA935B
:1003F4003A922A921A920A927A936A935A934A9355
:100404003A932A931A930A938FB798B7A9B7BBB7AD
:100414004CB608958A932051304041F02051304029
:1004240039F02052304031F080E005C081E003C053
:1004340082E001C083E0D4DF20E0F8012BBF2183F8
:1004440026E020838064818323CF60ED79E2202F2E
:100454002F70220F402F440F00E010E0001F020F06
:1004640043E00F94A900060F171F0895E8EC62D02B
:100474000F7D1BD00F7D008344D102E005933283AE
:10048400338300E2069300E4069345D1069300E427
:100494000693E2EEF9E23487358736873787308B67
:1004A400318B32873387368B08950083008108951A
:1004B40087D0002331F0033011F0043009F42ED139
:1004C40087D00091D2291091D329083050E01040F0
:1004D40041F548E02AEF39E28D010F94AF00E8ECD2
:1004E40029D00062E2DF006200830F941706002324
:1004F40011F4F1D016C090E099BF0C91FD019BBF9F
:1005040007FF05C011D002E0068B16D00AC0068191
:100514001781012B11F4EBD004C006D001E0068B47
:10052400F6D0E4E00D946A00928B938B948B958BB8
:100534000895E0ECD0DEBACF43D0033011F447D0B5
:100544003EC0A4D082859385801B910B282F292B34
:10055400B9F48CD00681178142890417150719F064
:100564000789002311F0D0D02AC089D089F07BD02C
:1005740079F000E0FD010BBF048B058B8285938528
:10058400803400E0900720F080E490E0078B03C003
:1005940001E00093F9298093DA299093DB29CDD0E7
:1005A4000085118544895589040F151F0093DC29A2
:1005B4001093DD290489158951D0A3D0A9D0B1CFD6
:1005C4000F947F00A2EEB9E20091F8290895A6D015
:1005D4004DCFF6DF043011F4FADF3FC08091D22909
:1005E4009091D329AAD00488158842855385800127
:1005F400080F191F4017510718F4CA0180199109EF
:10060400AC012AEF39E200851185000D111D0F940C
:10061400AF003CD023D004898034904031F42AD0F8
:10062400668177814617570740F00287138727D0E2
:1006340011F019D059F05BD010C042855385401792
:10064400510751F41CD011F00ED011F444D005C060
:100654001DD00CD0348B358B5AD063CF080F191FA3
:10066400048B158B089566D00023089503D0428B24
:10067400538B089542895389400F511F089547852C
:10068400508961894030530763070895FD0124DED2
:100694000489158908950091CC0401FD0AC00AD08B
:1006A40041F40091F829013009F421C0043009F41F
:1006B40015D008955ED0D8CF0091CC0401FD0AC0B6
:1006C400F9DF41F40091F829023009F41DC0033028
:1006D40009F404D0089505E00093F829E9EDF9E25E
:1006E40004E00593E1EDF9E204E00593089503E0E5
:1006F4000093F82900E00093DA290093DB2901D064
:1007040007C0E8EDF9E2089504E00093F82903D066
:1007140002E006930895E0EDF9E20895E2EEF9E2CD
:10072400DBDD44855585668540305307630709F052
:1007340001D00895FA016CBF1994FD01CDCDEBEC05
:10074400F9DE02FF08C0F093CA040091D82906FF1D
:100754000BC0A1DF09C0008101FF07C002E006D081
:100764000091D02906FDA8DF16C094CD0093CA04D9
:100774000895ECECDFDE00FF8DCD01E00083CBDFDC
:1007840000E80693BEDF00E8069301E0EFDFC3DF75
:1007940000E106938DDE01E008950F947F0049D1B6
:1007A4002681222389F1A281B38190E039BF4D9142
:1007B4005C91DA01149639BF2C91021728F5448311
:1007C4005583DA0112962D913C91420F531F05C0B7
:1007D4002C91A20FB91FA483B583A481B581A4175A
:1007E400B50790F4119699BF2C911197243081F795
:1007F40012962C911297021759F713962C9113976E
:10080400121731F701E001C000E0E4E00D946A0042
:100814008A93802F10E04ED111F400E006C016D068
:10082400038114812581E6D101E0899108958A9399
:10083400802F40D149F00AD0008111812281DAD180
:10084400002311F001E001C000E0EFCFE091562158
:10085400F0915721A5D1D6D11CC10D941201AA93B0
:1008640014D131F0A0E002C03BD1A395CFD1E0F385
:1008740000E000935A2101E010E095D11BBF0083F2
:100884001183A99108958A9300D1E1F080E00EC00C
:10089400F801B8D1FED044855585668540305307AC
:1008A400630719F0FA016CBF1995839500915621DD
:1008B40010915721F80174D14081F181E42F2481F2
:1008C400821730F3B2CF0091E4290F770D947101B0
:1008D4000091E429002329F00A9541F00A9519F1C1
:1008E40026C024E030E006E011E21BC025E00EEE55
:1008F40010E240E050E032E0F801E40FF51F5BBF86
:100904006081439FF001E653FF4D62835383439517
:10091400421790F3220F2E5F2093CA2030E00AEC96
:1009240010E2B1D005C021E104EF10E2E2CF9EC194
:1009340001E00895BA93AA93A2EEB9E230D162819C
:10094400238104E411E22A9529F02A95B9F02A9525
:1009540071F130C0F80140815181FA0120818A018E
:1009640092D0FD014AD1428553850417150710F42E
:100974000287138701E0A991B9910895F801408194
:10098400F181E42F21896217A8F4F801028113810F
:1009940024E0629F83D01181F8012281338173D0D6
:1009A40022E0FDD00085F185E02F2183DACF90DFAE
:1009B4000023B9F600E0DFCF9A938A9382EE99E29E
:1009C400FC0190D081F50F947401002361F1E09152
:1009D4004421F0914521E4D02189FC0102812017B2
:1009E40010F13DDFFC01DCD0028100935A212091FB
:1009F4005A212223D1F0009146211091472134E05D
:100A0400239F000D111D04501040CDD00283138389
:100A140080E001C083950DD046D038F410E0082F53
:100A240006DF0023B9F700E001C001E08991999144
:100A34000895E4E5F1E2B4C00F947F000091E82941
:100A44001091E929013020E0104071F4A4E5B1E2ED
:100A54001CD051F08091E629FD012BBF24D020F455
:100A640010E0082F27D011F400E00CC0FD01C9D01C
:100A740010D0BDD000935B2121E030E017968D01AA
:100A840002D001E0C2CE0D94770100915A210023D7
:100A94000895829F03D0F181E02F0895000D111D68
:100AA400F801008108950281F381E02FB5D0801709
:100AB40008950A2F72DEEBCFAA938A93E2EEF9E24D
:100AC40011D039F4E2DF29F0A481828109D0002316
:100AD40011F400E003C0182F0A2FA9DE8991D1CEAA
:100AE4000A2F96CE8AD0012B0895E2EEF9E258D06F
:100AF400008107FF2BC046815781042F052B09F481
:100B040046C000810F71E1F41181112329F01650C0
:100B140061F0125059F014C0423000E0504009F026
:100B2400089522E004E511E209C004CF413000E059
:100B3400504009F0089521E00AE511E2A4DFF8CE5F
:100B4400013029F501810A3011F576CF0F7109F5CD
:100B540011811A9581F01250D1F0125019F01450ED
:100B6400B9F017C085D099F405E614E021E00487B4
:100B740015872687E4CF7CD051F40281138101309C
:100B8400104029F410D000810D7F0083D8CF6EC0AF
:100B940013CF0130E1F701810B30C9F78DCFFD018F
:100BA40030E03BBF0895E4E5F1E208950F9480003E
:100BB4006CDFA1F0A091E62929D080F410E079DF60
:100BC40069F0F1DF1ED0A29F000D111DF801808194
:100BD4009181FC010CD0102F6CDF11F400E004C0F3
:100BE400FC010BD0208506D0E3E00D946B00018559
:100BF40012852385F8012CBF1994D2DF0681178151
:100C040008950FD00281138122E00895E4E5F1E212
:100C140008D002D0A01708950081F181E02F04814B
:100C24000895BEDF0281F38137CFE2EEF9E200E0FE
:100C34000BBF028703870487058706870787008B16
:100C4400018B008107FF02C013D081F00091E229DB
:100C5400007619F44ADF002341F40091E2290F7170
:100C6400013021F4A3DF002309F062CE00E00895EF
:100C74000681178138CF00E00093772158D00F9474
:100C8400CE0A0F94DF0ADFC0089529D1A2EEB9E29B
:100C94000091E2290076003209F047C01091E3295F
:100CA40090E099BF0C9107FF17C0125041F01A95BC
:100CB400C1F526E030E006E611E279D130C07BD000
:100CC4009BBF408D518D628D40305907690749F1B2
:100CD400FA016CBF19952AC01A9521F0135009F531
:100CE40026D01DC000917721002361F000E00F940D
:100CF400070B08EF1AE021E0FD019BBF048715876D
:100D040026870DC020E430E00AE711E250D109EA59
:100D140016E021E0FD019BBF0787108B218B01E0CA
:100D240005C049D00FE09BBF69D000E091C102C06B
:100D340000E0089500E0F8D0E2EEF9E200E00BBF35
:100D44000787008B018B0487058706870895EFDFEB
:100D540000E031D00BBF008F018F028F01E00F94B0
:100D6400070BEAE7F1E226D150814181403001E0EE
:100D7400500709F423C0403003E0500709F441C090
:100D84004130500709F457C0403004E0500739F4AB
:100D94000F94E90A002300E009F4089554C0433095
:100DA400500721F401E00093772108954330564021
:100DB40009F455C0BDCFECE5F1E20895FAD0048DF5
:100DC400158D012309F0ADC0478150856185403000
:100DD4005040604011F411D002C028D009F4A8CFCB
:100DE40020E038E0E2D004E518E021E0E2EEF9E2A8
:100DF400E1D00787108B218B28C003E002870AE02B
:100E0400A4CF14D019F023D011F4F7DF91CF048DBF
:100E1400158D012321F003E917E021E003C00CEC58
:100E240017E021E0008F118F228F0FC00CE711E231
:100E340081D000230895FADF19F009D011F4DDDF21
:100E440077CFBBD002C00093782101E00895B1D0E0
:100E540044815581668140305040604008953FD0C0
:100E6400249700917D2110917C21112319F01A956A
:100E740069F032C0013128F534D000E0ACE6B1E2CB
:100E840009BF0D930D930D930C9326C040E0488346
:100E940049834A834B830B8300917E210A83ACE50B
:100EA400B1E248815981602F7B8190E099BF0D9117
:100EB4001D912D913C9113974017510762077307B9
:100EC40040F008E0009366210AE000936A2100E004
:100ED40004C0FD019BBFC9D001E02496B9C00D94A4
:100EE4007F00033041F0023031F0043021F005304E
:100EF40011F011E001C010E01093792112E0019F7C
:100F0400F001E955FF4D56D00080F1810CE511E266
:100F140020E0E02D4AE050E060E00D948400FD0103
:100F240049C003E001D004CF0093662102E000939E
:100F34006A2108950F947B00ACE5B1E2F0DF628989
:100F44007389F8011080512D0180402DFD01008A24
:100F5400118A628B738B1B01F80112800380FD01DF
:100F64004080518062807380041415042604370481
:100F740020F008E043DF00E00AC0041A150A260A3C
:100F8400370A01E0000E131E231E331E69D0E8E069
:100F94000D9466000ED0248835896FD0222D6AD036
:100FA40008D02489358901D050CF0AEB11E20D9481
:100FB400770101DF30E03BBF089594D04CD0452B3E
:100FC400462B472B41F458EF348B558B368B378B9C
:100FD40080E098E019C0A3DF3ED0042F052B062B38
:100FE400072BB1F1403008E050076040704010F426
:100FF400CA0102C080E098E00A0126883788081AEE
:10100400190A230A330A2CD0392F37D0282F32D08B
:101014000AEB11E208C0FD013BBF36D04F5F5F4FC2
:101024006F4F7F4F22D09C010197232BA1F2F8012F
:10103400C1DF21918F012F3F71F305E000936621F9
:101044000BE418E021E0FD013BBF008F118F228FDC
:10105400E4E00D946A004489558966897789089586
:10106400048A158A268A378A0895408B518B628BAD
:10107400738B08950AEB11E2199406D0048115814B
:101084002681F8012CBF08954089518962897389AA
:1010940008958FDF408901890093BA214093BB21D1
:1010A40022E081CF1FD00088118822893389648986
:1010B4007589002D0F7310E04AEB51E2400F511F68
:1010C400800190E0179699BF0D901D902C90F0012F
:1010D4002CBE1995E2EEF9E29BBF9787908B918B1A
:1010E40001E0B6CFFCDEACE5B1E219CFE4E00D944B
:1010F4006A00B801890195D03BBF208127FDFCCF50
:10110400ECEC208128602083705F9B010F94AF007A
:10111400ECECF1E030E058D0077F008308950F94A1
:101124007F00C801A22FB091CA013ED07AD04CD022
:1011340007FDFDCF0CD06AD09093C1018093C0010C
:10114400A093C40105E33AD0B093CA01CFCF03E31F
:101154000093CA0108950F947B002801D9013A0134
:1011640090E00FC08D0136D045E082010F94A300BA
:1011740050D000E2400E591E909600EE600E0FEF24
:10118400701E062D072969F0042D0F7121F400E269
:101194006016790638F799BF2D918201C0DF99D086
:1011A400EFCFE8E00D9466003CD00ED007FDFDCFF4
:1011B400008101FF02C006E301D00895C9DF21E0E8
:1011C4000BEC11E00D949C003BBF0081089540930B
:1011D400CA0108954091CA0130E02091CF0127FD52
:1011E400FCCF23E32093CA0120E00CD02093C0015C
:1011F400F8013BBF51918F015093C40123952032D4
:10120400A8F3E5CF03D03093C10108953093C20110
:10121400089506D030D017FDFDCF07D005E325C0D3
:101224008A93EFECF1E030E0089510E2019FEEDFE5
:101234001092C1010092C001DEC09A938A93802F5C
:101244009091CA01B1DF30E0C4D007FDFDCF7FDF4C
:1012540000E0D8DF1ED08093C40103950032D0F3A0
:101264009093CA0189919991089572DFA8DF8093C0
:10127400CA01899108953BBF10810895D1DFA4DF8D
:1012840007FDFDCFB8D000E3F0CF01D0F7CF0FEFCB
:10129400D4CF0093C00108951C0108018A01CB0139
:1012A400A001622F30E02091CF0127FDFCCF282F31
:1012B400292B69F0FA016BBF2691F8013BBF20830B
:1012C4000F5F1F4F4F5F5F4F6F4F0197F0CFC1010B
:1012D400089501E0400E591E0FEF600E08950F941B
:1012E400730022974A015B01280139011170802F94
:1012F400952DD901801B910BA040B040CA8807C02E
:1013040068D007FDFDCF45E2002D0F9430005ED07C
:1013140009F458C0DD245DD007FDFDCFEE24FF2481
:10132400F394CC2071F0FC01ABBF079116910883B4
:1013340019834881512F4F3F5F4F31F0DD24D394FF
:1013440003C00FEF0883098341D0E1F04816590622
:101354006A067B0639F440D0088301E0800E931EB0
:1013640035D081F08C019D010F5F1F4F2F4F3F4FF0
:10137400401651066206730629F42ED0098301E053
:10138400800E931E488159818C019D010F941E008B
:101394008E5F9F4FAF4FBF4F0FEFE00EF01E0E2D2D
:1013A4000F2909F0BECF8C019D010050124020404E
:1013B4003040DD20002E09F0A3CF0BD007FDFDCF78
:1013C40044E2A2CF2296E1E10D945E000A2D0B299E
:1013D40008950091CF01089509D0400E00E0501EF9
:1013E400601E701EF40130E00BBFEFCE0FEFA00EB5
:1013F400B01E01E008958091CA0108950FBF0895B9
:10140400083039F01FB76ED02081202B2083012FA4
:1014140079D008958A938FB7F8940A9519F00A95AC
:1014240059F023C0183019F424D0016002C023D02D
:101434000E7F0083E8E616C01ED0097F00831830B3
:1014440019F417D002600CC0143011F4008108C0E4
:101454001F3F39F400E807870BEB008B0081046021
:101464000083E0E6008101600083082F4BD089915E
:10147400089504E0C5DFE6E5F0E0FBBF00810895D0
:101484002497E0E7F0E007E01FEF30E03BBF119363
:101494000A95E1F724E001E410E050D02CE127D0D4
:1014A40009832DE124D0088319810F3F1F4F21F4B4
:1014B40000E413E208831983088119810A831B83DA
:1014C4000A81009362000B810093630039D021E00C
:1014D40000E433D00FB706D010811E7F108312D0E2
:1014E40024960895F894E0E5F0E0FBBF089530E019
:1014F40002E00D9492002FB7F894109504D00123C4
:101504000083022F7BCFF0E0E02FE059FF4F30E063
:101514003BBFB4CF8A93063011F488E101C080E068
:101524000091510001FB0EF00BD08360282F04E4DE
:1015340004D010E400E0DFDF9ACF10E00D949C00AB
:1015440002E05EDF0091510001FBE6F71FEF02E0CD
:1015540061CF0A011B01B901A801800191010D9419
:101564004E09E1E0EA930D9471090A01A901980179
:1015740080010D947B089A01AB010D94AD080A011A
:10158400A90122E730E2200D311D0D94AF000A01BC
:10159400A90120E531E2F7CF00919000009350219A
:1015A40000919100009351210091920000935221E7
:1015B40000919300009353210895E0EDF1E030E0B1
:1015C4003BBF008101FB00E000F90F27089530E0E4
:1015D4000091CF0107FDFCCF40E200E010E020E0E5
:1015E4000F9430000F94470901E00895F8940AEA33
:1015F40015E50093002010930120209179002160CB
:1016040009E710E00F949C00FFCF089540E099BFD4
:101614004D9399B70150104020403040402F412B4A
:10162400422B432B99F708953BBF07913BB799BFD2
:101634000D9399B74150504060407040042F052BE2
:10164400062B072B89F7089502EB402E06E1502E56
:1016540002E0602EF201362D6BBE479157916791DF
:101664007691F201EC5FFF4F3F4F3BBFA791B791DB
:101674009691F201362DE95FFF4F3F4F3BBF079133
:1016840017913691F801012B032B11F0CDDF03C024
:101694008A019B01BBDF0AE0400E00E0501E601E81
:1016A400A201662D463C56416240A0F20895EA0824
:1016B4000000502100000000D6000000722000C687
:1016C400160204000000000200AB0A01B30A010084
:1016D400080000B70A01BD0A0103000000C10A01A5
:1016E40000000004000000C90A010000000000001E
:1016F4000000000000000075207F209D209D2089AF
:101704002093209D209D209D209D209D209D209DF7
:10171400209D209D209D209D2000000300000000AE
:1017240000000000000000000000000000000000B5
:101734000000000000000000000000000000415410
:101744004D454C00444655204154584D4547413180
:10175400323841315500040309043D0601460601AF
:101764004706019A06010000000012010002000071
:101774000040EB03ED2F04000102000109021200F6
:10178400010100C0320904000000FF0000000A212A
:081794002C213E211A21402105
:0400000320000000D9
:00000001FF
